{
  "contractName": "QuizCertificate",
  "abi": [
    {
      "inputs": [],
      "stateMutability": "nonpayable",
      "type": "constructor"
    },
    {
      "anonymous": false,
      "inputs": [
        {
          "indexed": true,
          "internalType": "address",
          "name": "owner",
          "type": "address"
        },
        {
          "indexed": true,
          "internalType": "address",
          "name": "approved",
          "type": "address"
        },
        {
          "indexed": true,
          "internalType": "uint256",
          "name": "tokenId",
          "type": "uint256"
        }
      ],
      "name": "Approval",
      "type": "event"
    },
    {
      "anonymous": false,
      "inputs": [
        {
          "indexed": true,
          "internalType": "address",
          "name": "owner",
          "type": "address"
        },
        {
          "indexed": true,
          "internalType": "address",
          "name": "operator",
          "type": "address"
        },
        {
          "indexed": false,
          "internalType": "bool",
          "name": "approved",
          "type": "bool"
        }
      ],
      "name": "ApprovalForAll",
      "type": "event"
    },
    {
      "anonymous": false,
      "inputs": [
        {
          "indexed": true,
          "internalType": "address",
          "name": "previousOwner",
          "type": "address"
        },
        {
          "indexed": true,
          "internalType": "address",
          "name": "newOwner",
          "type": "address"
        }
      ],
      "name": "OwnershipTransferred",
      "type": "event"
    },
    {
      "anonymous": false,
      "inputs": [
        {
          "indexed": true,
          "internalType": "address",
          "name": "from",
          "type": "address"
        },
        {
          "indexed": true,
          "internalType": "address",
          "name": "to",
          "type": "address"
        },
        {
          "indexed": true,
          "internalType": "uint256",
          "name": "tokenId",
          "type": "uint256"
        }
      ],
      "name": "Transfer",
      "type": "event"
    },
    {
      "inputs": [
        {
          "internalType": "address",
          "name": "to",
          "type": "address"
        },
        {
          "internalType": "uint256",
          "name": "tokenId",
          "type": "uint256"
        }
      ],
      "name": "approve",
      "outputs": [],
      "stateMutability": "nonpayable",
      "type": "function"
    },
    {
      "inputs": [
        {
          "internalType": "address",
          "name": "owner",
          "type": "address"
        }
      ],
      "name": "balanceOf",
      "outputs": [
        {
          "internalType": "uint256",
          "name": "",
          "type": "uint256"
        }
      ],
      "stateMutability": "view",
      "type": "function"
    },
    {
      "inputs": [
        {
          "internalType": "uint256",
          "name": "tokenId",
          "type": "uint256"
        }
      ],
      "name": "getApproved",
      "outputs": [
        {
          "internalType": "address",
          "name": "",
          "type": "address"
        }
      ],
      "stateMutability": "view",
      "type": "function"
    },
    {
      "inputs": [
        {
          "internalType": "address",
          "name": "owner",
          "type": "address"
        },
        {
          "internalType": "address",
          "name": "operator",
          "type": "address"
        }
      ],
      "name": "isApprovedForAll",
      "outputs": [
        {
          "internalType": "bool",
          "name": "",
          "type": "bool"
        }
      ],
      "stateMutability": "view",
      "type": "function"
    },
    {
      "inputs": [],
      "name": "name",
      "outputs": [
        {
          "internalType": "string",
          "name": "",
          "type": "string"
        }
      ],
      "stateMutability": "view",
      "type": "function"
    },
    {
      "inputs": [],
      "name": "owner",
      "outputs": [
        {
          "internalType": "address",
          "name": "",
          "type": "address"
        }
      ],
      "stateMutability": "view",
      "type": "function"
    },
    {
      "inputs": [
        {
          "internalType": "uint256",
          "name": "tokenId",
          "type": "uint256"
        }
      ],
      "name": "ownerOf",
      "outputs": [
        {
          "internalType": "address",
          "name": "",
          "type": "address"
        }
      ],
      "stateMutability": "view",
      "type": "function"
    },
    {
      "inputs": [],
      "name": "renounceOwnership",
      "outputs": [],
      "stateMutability": "nonpayable",
      "type": "function"
    },
    {
      "inputs": [
        {
          "internalType": "address",
          "name": "from",
          "type": "address"
        },
        {
          "internalType": "address",
          "name": "to",
          "type": "address"
        },
        {
          "internalType": "uint256",
          "name": "tokenId",
          "type": "uint256"
        }
      ],
      "name": "safeTransferFrom",
      "outputs": [],
      "stateMutability": "nonpayable",
      "type": "function"
    },
    {
      "inputs": [
        {
          "internalType": "address",
          "name": "from",
          "type": "address"
        },
        {
          "internalType": "address",
          "name": "to",
          "type": "address"
        },
        {
          "internalType": "uint256",
          "name": "tokenId",
          "type": "uint256"
        },
        {
          "internalType": "bytes",
          "name": "_data",
          "type": "bytes"
        }
      ],
      "name": "safeTransferFrom",
      "outputs": [],
      "stateMutability": "nonpayable",
      "type": "function"
    },
    {
      "inputs": [
        {
          "internalType": "address",
          "name": "operator",
          "type": "address"
        },
        {
          "internalType": "bool",
          "name": "approved",
          "type": "bool"
        }
      ],
      "name": "setApprovalForAll",
      "outputs": [],
      "stateMutability": "nonpayable",
      "type": "function"
    },
    {
      "inputs": [
        {
          "internalType": "bytes4",
          "name": "interfaceId",
          "type": "bytes4"
        }
      ],
      "name": "supportsInterface",
      "outputs": [
        {
          "internalType": "bool",
          "name": "",
          "type": "bool"
        }
      ],
      "stateMutability": "view",
      "type": "function"
    },
    {
      "inputs": [],
      "name": "symbol",
      "outputs": [
        {
          "internalType": "string",
          "name": "",
          "type": "string"
        }
      ],
      "stateMutability": "view",
      "type": "function"
    },
    {
      "inputs": [
        {
          "internalType": "uint256",
          "name": "tokenId",
          "type": "uint256"
        }
      ],
      "name": "tokenURI",
      "outputs": [
        {
          "internalType": "string",
          "name": "",
          "type": "string"
        }
      ],
      "stateMutability": "view",
      "type": "function"
    },
    {
      "inputs": [
        {
          "internalType": "address",
          "name": "from",
          "type": "address"
        },
        {
          "internalType": "address",
          "name": "to",
          "type": "address"
        },
        {
          "internalType": "uint256",
          "name": "tokenId",
          "type": "uint256"
        }
      ],
      "name": "transferFrom",
      "outputs": [],
      "stateMutability": "nonpayable",
      "type": "function"
    },
    {
      "inputs": [
        {
          "internalType": "address",
          "name": "newOwner",
          "type": "address"
        }
      ],
      "name": "transferOwnership",
      "outputs": [],
      "stateMutability": "nonpayable",
      "type": "function"
    },
    {
      "inputs": [
        {
          "internalType": "string",
          "name": "_firstName",
          "type": "string"
        },
        {
          "internalType": "string",
          "name": "_lastName",
          "type": "string"
        }
      ],
      "name": "mintCertificate",
      "outputs": [],
      "stateMutability": "nonpayable",
      "type": "function"
    },
    {
      "inputs": [
        {
          "internalType": "uint256",
          "name": "_certId",
          "type": "uint256"
        }
      ],
      "name": "getGradient",
      "outputs": [
        {
          "internalType": "string",
          "name": "firstName",
          "type": "string"
        },
        {
          "internalType": "string",
          "name": "lastName",
          "type": "string"
        }
      ],
      "stateMutability": "view",
      "type": "function"
    }
  ],
  "bytecode": "0x60806040523480156200001157600080fd5b506040518060400160405280600781526020017f5175697a4e4654000000000000000000000000000000000000000000000000008152506040518060400160405280600481526020017f5155495a0000000000000000000000000000000000000000000000000000000081525081600090805190602001906200009692919062000171565b508060019080519060200190620000af92919062000171565b5050506000620000c46200016960201b60201c565b905080600660006101000a81548173ffffffffffffffffffffffffffffffffffffffff021916908373ffffffffffffffffffffffffffffffffffffffff1602179055508073ffffffffffffffffffffffffffffffffffffffff16600073ffffffffffffffffffffffffffffffffffffffff167f8be0079c531659141344cd1fd0a4f28419497f9722a3daafe3b4186f6b6457e060405160405180910390a35062000286565b600033905090565b8280546200017f9062000221565b90600052602060002090601f016020900481019282620001a35760008555620001ef565b82601f10620001be57805160ff1916838001178555620001ef565b82800160010185558215620001ef579182015b82811115620001ee578251825591602001919060010190620001d1565b5b509050620001fe919062000202565b5090565b5b808211156200021d57600081600090555060010162000203565b5090565b600060028204905060018216806200023a57607f821691505b6020821081141562000251576200025062000257565b5b50919050565b7f4e487b7100000000000000000000000000000000000000000000000000000000600052602260045260246000fd5b612e6580620002966000396000f3fe608060405234801561001057600080fd5b50600436106101165760003560e01c80638da5cb5b116100a2578063c87b56dd11610071578063c87b56dd146102cb578063d0bdf89b146102fb578063d927f09e14610317578063e985e9c514610348578063f2fde38b1461037857610116565b80638da5cb5b1461025757806395d89b4114610275578063a22cb46514610293578063b88d4fde146102af57610116565b806323b872dd116100e957806323b872dd146101b557806342842e0e146101d15780636352211e146101ed57806370a082311461021d578063715018a61461024d57610116565b806301ffc9a71461011b57806306fdde031461014b578063081812fc14610169578063095ea7b314610199575b600080fd5b61013560048036038101906101309190611f7c565b610394565b6040516101429190612786565b60405180910390f35b610153610476565b60405161016091906127a1565b60405180910390f35b610183600480360381019061017e919061203a565b610508565b604051610190919061271f565b60405180910390f35b6101b360048036038101906101ae9190611f40565b61058d565b005b6101cf60048036038101906101ca9190611e3a565b6106a5565b005b6101eb60048036038101906101e69190611e3a565b610705565b005b6102076004803603810190610202919061203a565b610725565b604051610214919061271f565b60405180910390f35b61023760048036038101906102329190611dd5565b6107d7565b60405161024491906129fa565b60405180910390f35b61025561088f565b005b61025f6109cc565b60405161026c919061271f565b60405180910390f35b61027d6109f6565b60405161028a91906127a1565b60405180910390f35b6102ad60048036038101906102a89190611f04565b610a88565b005b6102c960048036038101906102c49190611e89565b610c09565b005b6102e560048036038101906102e0919061203a565b610c6b565b6040516102f291906127a1565b60405180910390f35b61031560048036038101906103109190611fce565b610d12565b005b610331600480360381019061032c919061203a565b610db9565b60405161033f9291906127c3565b60405180910390f35b610362600480360381019061035d9190611dfe565b610f4b565b60405161036f9190612786565b60405180910390f35b610392600480360381019061038d9190611dd5565b610fdf565b005b60007f80ac58cd000000000000000000000000000000000000000000000000000000007bffffffffffffffffffffffffffffffffffffffffffffffffffffffff1916827bffffffffffffffffffffffffffffffffffffffffffffffffffffffff1916148061045f57507f5b5e139f000000000000000000000000000000000000000000000000000000007bffffffffffffffffffffffffffffffffffffffffffffffffffffffff1916827bffffffffffffffffffffffffffffffffffffffffffffffffffffffff1916145b8061046f575061046e8261118b565b5b9050919050565b60606000805461048590612c5a565b80601f01602080910402602001604051908101604052809291908181526020018280546104b190612c5a565b80156104fe5780601f106104d3576101008083540402835291602001916104fe565b820191906000526020600020905b8154815290600101906020018083116104e157829003601f168201915b5050505050905090565b6000610513826111f5565b610552576040517f08c379a00000000000000000000000000000000000000000000000000000000081526004016105499061293a565b60405180910390fd5b6004600083815260200190815260200160002060009054906101000a900473ffffffffffffffffffffffffffffffffffffffff169050919050565b600061059882610725565b90508073ffffffffffffffffffffffffffffffffffffffff168373ffffffffffffffffffffffffffffffffffffffff161415610609576040517f08c379a0000000000000000000000000000000000000000000000000000000008152600401610600906129ba565b60405180910390fd5b8073ffffffffffffffffffffffffffffffffffffffff16610628611261565b73ffffffffffffffffffffffffffffffffffffffff161480610657575061065681610651611261565b610f4b565b5b610696576040517f08c379a000000000000000000000000000000000000000000000000000000000815260040161068d906128ba565b60405180910390fd5b6106a08383611269565b505050565b6106b66106b0611261565b82611322565b6106f5576040517f08c379a00000000000000000000000000000000000000000000000000000000081526004016106ec906129da565b60405180910390fd5b610700838383611400565b505050565b61072083838360405180602001604052806000815250610c09565b505050565b6000806002600084815260200190815260200160002060009054906101000a900473ffffffffffffffffffffffffffffffffffffffff169050600073ffffffffffffffffffffffffffffffffffffffff168173ffffffffffffffffffffffffffffffffffffffff1614156107ce576040517f08c379a00000000000000000000000000000000000000000000000000000000081526004016107c5906128fa565b60405180910390fd5b80915050919050565b60008073ffffffffffffffffffffffffffffffffffffffff168273ffffffffffffffffffffffffffffffffffffffff161415610848576040517f08c379a000000000000000000000000000000000000000000000000000000000815260040161083f906128da565b60405180910390fd5b600360008373ffffffffffffffffffffffffffffffffffffffff1673ffffffffffffffffffffffffffffffffffffffff168152602001908152602001600020549050919050565b610897611261565b73ffffffffffffffffffffffffffffffffffffffff166108b56109cc565b73ffffffffffffffffffffffffffffffffffffffff161461090b576040517f08c379a00000000000000000000000000000000000000000000000000000000081526004016109029061295a565b60405180910390fd5b600073ffffffffffffffffffffffffffffffffffffffff16600660009054906101000a900473ffffffffffffffffffffffffffffffffffffffff1673ffffffffffffffffffffffffffffffffffffffff167f8be0079c531659141344cd1fd0a4f28419497f9722a3daafe3b4186f6b6457e060405160405180910390a36000600660006101000a81548173ffffffffffffffffffffffffffffffffffffffff021916908373ffffffffffffffffffffffffffffffffffffffff160217905550565b6000600660009054906101000a900473ffffffffffffffffffffffffffffffffffffffff16905090565b606060018054610a0590612c5a565b80601f0160208091040260200160405190810160405280929190818152602001828054610a3190612c5a565b8015610a7e5780601f10610a5357610100808354040283529160200191610a7e565b820191906000526020600020905b815481529060010190602001808311610a6157829003601f168201915b5050505050905090565b610a90611261565b73ffffffffffffffffffffffffffffffffffffffff168273ffffffffffffffffffffffffffffffffffffffff161415610afe576040517f08c379a0000000000000000000000000000000000000000000000000000000008152600401610af59061287a565b60405180910390fd5b8060056000610b0b611261565b73ffffffffffffffffffffffffffffffffffffffff1673ffffffffffffffffffffffffffffffffffffffff16815260200190815260200160002060008473ffffffffffffffffffffffffffffffffffffffff1673ffffffffffffffffffffffffffffffffffffffff16815260200190815260200160002060006101000a81548160ff0219169083151502179055508173ffffffffffffffffffffffffffffffffffffffff16610bb8611261565b73ffffffffffffffffffffffffffffffffffffffff167f17307eab39ab6107e8899845ad3d59bd9653f200f220920489ca2b5937696c3183604051610bfd9190612786565b60405180910390a35050565b610c1a610c14611261565b83611322565b610c59576040517f08c379a0000000000000000000000000000000000000000000000000000000008152600401610c50906129da565b60405180910390fd5b610c658484848461165c565b50505050565b6060610c76826111f5565b610cb5576040517f08c379a0000000000000000000000000000000000000000000000000000000008152600401610cac9061299a565b60405180910390fd5b6000610cbf6116b8565b90506000815111610cdf5760405180602001604052806000815250610d0a565b80610ce9846116cf565b604051602001610cfa9291906126fb565b6040516020818303038152906040525b915050919050565b6000604051806040016040528084815260200183815250905060078190806001815401808255809150506001900390600052602060002090600202016000909190919091506000820151816000019080519060200190610d73929190611bf9565b506020820151816001019080519060200190610d90929190611bf9565b50505060006001600780549050610da79190612b70565b9050610db3338261187c565b50505050565b606080600060078481548110610df8577f4e487b7100000000000000000000000000000000000000000000000000000000600052603260045260246000fd5b9060005260206000209060020201604051806040016040529081600082018054610e2190612c5a565b80601f0160208091040260200160405190810160405280929190818152602001828054610e4d90612c5a565b8015610e9a5780601f10610e6f57610100808354040283529160200191610e9a565b820191906000526020600020905b815481529060010190602001808311610e7d57829003601f168201915b50505050508152602001600182018054610eb390612c5a565b80601f0160208091040260200160405190810160405280929190818152602001828054610edf90612c5a565b8015610f2c5780601f10610f0157610100808354040283529160200191610f2c565b820191906000526020600020905b815481529060010190602001808311610f0f57829003601f168201915b5050505050815250509050806000015192508060200151915050915091565b6000600560008473ffffffffffffffffffffffffffffffffffffffff1673ffffffffffffffffffffffffffffffffffffffff16815260200190815260200160002060008373ffffffffffffffffffffffffffffffffffffffff1673ffffffffffffffffffffffffffffffffffffffff16815260200190815260200160002060009054906101000a900460ff16905092915050565b610fe7611261565b73ffffffffffffffffffffffffffffffffffffffff166110056109cc565b73ffffffffffffffffffffffffffffffffffffffff161461105b576040517f08c379a00000000000000000000000000000000000000000000000000000000081526004016110529061295a565b60405180910390fd5b600073ffffffffffffffffffffffffffffffffffffffff168173ffffffffffffffffffffffffffffffffffffffff1614156110cb576040517f08c379a00000000000000000000000000000000000000000000000000000000081526004016110c29061281a565b60405180910390fd5b8073ffffffffffffffffffffffffffffffffffffffff16600660009054906101000a900473ffffffffffffffffffffffffffffffffffffffff1673ffffffffffffffffffffffffffffffffffffffff167f8be0079c531659141344cd1fd0a4f28419497f9722a3daafe3b4186f6b6457e060405160405180910390a380600660006101000a81548173ffffffffffffffffffffffffffffffffffffffff021916908373ffffffffffffffffffffffffffffffffffffffff16021790555050565b60007f01ffc9a7000000000000000000000000000000000000000000000000000000007bffffffffffffffffffffffffffffffffffffffffffffffffffffffff1916827bffffffffffffffffffffffffffffffffffffffffffffffffffffffff1916149050919050565b60008073ffffffffffffffffffffffffffffffffffffffff166002600084815260200190815260200160002060009054906101000a900473ffffffffffffffffffffffffffffffffffffffff1673ffffffffffffffffffffffffffffffffffffffff1614159050919050565b600033905090565b816004600083815260200190815260200160002060006101000a81548173ffffffffffffffffffffffffffffffffffffffff021916908373ffffffffffffffffffffffffffffffffffffffff160217905550808273ffffffffffffffffffffffffffffffffffffffff166112dc83610725565b73ffffffffffffffffffffffffffffffffffffffff167f8c5be1e5ebec7d5bd14f71427d1e84f3dd0314c0f7b2291e5b200ac8c7c3b92560405160405180910390a45050565b600061132d826111f5565b61136c576040517f08c379a00000000000000000000000000000000000000000000000000000000081526004016113639061289a565b60405180910390fd5b600061137783610725565b90508073ffffffffffffffffffffffffffffffffffffffff168473ffffffffffffffffffffffffffffffffffffffff1614806113e657508373ffffffffffffffffffffffffffffffffffffffff166113ce84610508565b73ffffffffffffffffffffffffffffffffffffffff16145b806113f757506113f68185610f4b565b5b91505092915050565b8273ffffffffffffffffffffffffffffffffffffffff1661142082610725565b73ffffffffffffffffffffffffffffffffffffffff1614611476576040517f08c379a000000000000000000000000000000000000000000000000000000000815260040161146d9061297a565b60405180910390fd5b600073ffffffffffffffffffffffffffffffffffffffff168273ffffffffffffffffffffffffffffffffffffffff1614156114e6576040517f08c379a00000000000000000000000000000000000000000000000000000000081526004016114dd9061285a565b60405180910390fd5b6114f1838383611a4a565b6114fc600082611269565b6001600360008573ffffffffffffffffffffffffffffffffffffffff1673ffffffffffffffffffffffffffffffffffffffff168152602001908152602001600020600082825461154c9190612b70565b925050819055506001600360008473ffffffffffffffffffffffffffffffffffffffff1673ffffffffffffffffffffffffffffffffffffffff16815260200190815260200160002060008282546115a39190612ae9565b92505081905550816002600083815260200190815260200160002060006101000a81548173ffffffffffffffffffffffffffffffffffffffff021916908373ffffffffffffffffffffffffffffffffffffffff160217905550808273ffffffffffffffffffffffffffffffffffffffff168473ffffffffffffffffffffffffffffffffffffffff167fddf252ad1be2c89b69c2b068fc378daa952ba7f163c4a11628f55a4df523b3ef60405160405180910390a4505050565b611667848484611400565b61167384848484611a4f565b6116b2576040517f08c379a00000000000000000000000000000000000000000000000000000000081526004016116a9906127fa565b60405180910390fd5b50505050565b606060405180602001604052806000815250905090565b60606000821415611717576040518060400160405280600181526020017f30000000000000000000000000000000000000000000000000000000000000008152509050611877565b600082905060005b6000821461174957808061173290612c8c565b915050600a826117429190612b3f565b915061171f565b60008167ffffffffffffffff81111561178b577f4e487b7100000000000000000000000000000000000000000000000000000000600052604160045260246000fd5b6040519080825280601f01601f1916602001820160405280156117bd5781602001600182028036833780820191505090505b5090505b60008514611870576001826117d69190612b70565b9150600a856117e59190612cd5565b60306117f19190612ae9565b60f81b81838151811061182d577f4e487b7100000000000000000000000000000000000000000000000000000000600052603260045260246000fd5b60200101907effffffffffffffffffffffffffffffffffffffffffffffffffffffffffffff1916908160001a905350600a856118699190612b3f565b94506117c1565b8093505050505b919050565b600073ffffffffffffffffffffffffffffffffffffffff168273ffffffffffffffffffffffffffffffffffffffff1614156118ec576040517f08c379a00000000000000000000000000000000000000000000000000000000081526004016118e39061291a565b60405180910390fd5b6118f5816111f5565b15611935576040517f08c379a000000000000000000000000000000000000000000000000000000000815260040161192c9061283a565b60405180910390fd5b61194160008383611a4a565b6001600360008473ffffffffffffffffffffffffffffffffffffffff1673ffffffffffffffffffffffffffffffffffffffff16815260200190815260200160002060008282546119919190612ae9565b92505081905550816002600083815260200190815260200160002060006101000a81548173ffffffffffffffffffffffffffffffffffffffff021916908373ffffffffffffffffffffffffffffffffffffffff160217905550808273ffffffffffffffffffffffffffffffffffffffff16600073ffffffffffffffffffffffffffffffffffffffff167fddf252ad1be2c89b69c2b068fc378daa952ba7f163c4a11628f55a4df523b3ef60405160405180910390a45050565b505050565b6000611a708473ffffffffffffffffffffffffffffffffffffffff16611be6565b15611bd9578373ffffffffffffffffffffffffffffffffffffffff1663150b7a02611a99611261565b8786866040518563ffffffff1660e01b8152600401611abb949392919061273a565b602060405180830381600087803b158015611ad557600080fd5b505af1925050508015611b0657506040513d601f19601f82011682018060405250810190611b039190611fa5565b60015b611b89573d8060008114611b36576040519150601f19603f3d011682016040523d82523d6000602084013e611b3b565b606091505b50600081511415611b81576040517f08c379a0000000000000000000000000000000000000000000000000000000008152600401611b78906127fa565b60405180910390fd5b805181602001fd5b63150b7a0260e01b7bffffffffffffffffffffffffffffffffffffffffffffffffffffffff1916817bffffffffffffffffffffffffffffffffffffffffffffffffffffffff191614915050611bde565b600190505b949350505050565b600080823b905060008111915050919050565b828054611c0590612c5a565b90600052602060002090601f016020900481019282611c275760008555611c6e565b82601f10611c4057805160ff1916838001178555611c6e565b82800160010185558215611c6e579182015b82811115611c6d578251825591602001919060010190611c52565b5b509050611c7b9190611c7f565b5090565b5b80821115611c98576000816000905550600101611c80565b5090565b6000611caf611caa84612a46565b612a15565b905082815260208101848484011115611cc757600080fd5b611cd2848285612c18565b509392505050565b6000611ced611ce884612a76565b612a15565b905082815260208101848484011115611d0557600080fd5b611d10848285612c18565b509392505050565b600081359050611d2781612dd3565b92915050565b600081359050611d3c81612dea565b92915050565b600081359050611d5181612e01565b92915050565b600081519050611d6681612e01565b92915050565b600082601f830112611d7d57600080fd5b8135611d8d848260208601611c9c565b91505092915050565b600082601f830112611da757600080fd5b8135611db7848260208601611cda565b91505092915050565b600081359050611dcf81612e18565b92915050565b600060208284031215611de757600080fd5b6000611df584828501611d18565b91505092915050565b60008060408385031215611e1157600080fd5b6000611e1f85828601611d18565b9250506020611e3085828601611d18565b9150509250929050565b600080600060608486031215611e4f57600080fd5b6000611e5d86828701611d18565b9350506020611e6e86828701611d18565b9250506040611e7f86828701611dc0565b9150509250925092565b60008060008060808587031215611e9f57600080fd5b6000611ead87828801611d18565b9450506020611ebe87828801611d18565b9350506040611ecf87828801611dc0565b925050606085013567ffffffffffffffff811115611eec57600080fd5b611ef887828801611d6c565b91505092959194509250565b60008060408385031215611f1757600080fd5b6000611f2585828601611d18565b9250506020611f3685828601611d2d565b9150509250929050565b60008060408385031215611f5357600080fd5b6000611f6185828601611d18565b9250506020611f7285828601611dc0565b9150509250929050565b600060208284031215611f8e57600080fd5b6000611f9c84828501611d42565b91505092915050565b600060208284031215611fb757600080fd5b6000611fc584828501611d57565b91505092915050565b60008060408385031215611fe157600080fd5b600083013567ffffffffffffffff811115611ffb57600080fd5b61200785828601611d96565b925050602083013567ffffffffffffffff81111561202457600080fd5b61203085828601611d96565b9150509250929050565b60006020828403121561204c57600080fd5b600061205a84828501611dc0565b91505092915050565b61206c81612ba4565b82525050565b61207b81612bb6565b82525050565b600061208c82612aa6565b6120968185612abc565b93506120a6818560208601612c27565b6120af81612dc2565b840191505092915050565b60006120c582612ab1565b6120cf8185612acd565b93506120df818560208601612c27565b6120e881612dc2565b840191505092915050565b60006120fe82612ab1565b6121088185612ade565b9350612118818560208601612c27565b80840191505092915050565b6000612131603283612acd565b91507f4552433732313a207472616e7366657220746f206e6f6e20455243373231526560008301527f63656976657220696d706c656d656e74657200000000000000000000000000006020830152604082019050919050565b6000612197602683612acd565b91507f4f776e61626c653a206e6577206f776e657220697320746865207a65726f206160008301527f64647265737300000000000000000000000000000000000000000000000000006020830152604082019050919050565b60006121fd601c83612acd565b91507f4552433732313a20746f6b656e20616c7265616479206d696e746564000000006000830152602082019050919050565b600061223d602483612acd565b91507f4552433732313a207472616e7366657220746f20746865207a65726f2061646460008301527f72657373000000000000000000000000000000000000000000000000000000006020830152604082019050919050565b60006122a3601983612acd565b91507f4552433732313a20617070726f766520746f2063616c6c6572000000000000006000830152602082019050919050565b60006122e3602c83612acd565b91507f4552433732313a206f70657261746f7220717565727920666f72206e6f6e657860008301527f697374656e7420746f6b656e00000000000000000000000000000000000000006020830152604082019050919050565b6000612349603883612acd565b91507f4552433732313a20617070726f76652063616c6c6572206973206e6f74206f7760008301527f6e6572206e6f7220617070726f76656420666f7220616c6c00000000000000006020830152604082019050919050565b60006123af602a83612acd565b91507f4552433732313a2062616c616e636520717565727920666f7220746865207a6560008301527f726f2061646472657373000000000000000000000000000000000000000000006020830152604082019050919050565b6000612415602983612acd565b91507f4552433732313a206f776e657220717565727920666f72206e6f6e657869737460008301527f656e7420746f6b656e00000000000000000000000000000000000000000000006020830152604082019050919050565b600061247b602083612acd565b91507f4552433732313a206d696e7420746f20746865207a65726f20616464726573736000830152602082019050919050565b60006124bb602c83612acd565b91507f4552433732313a20617070726f76656420717565727920666f72206e6f6e657860008301527f697374656e7420746f6b656e00000000000000000000000000000000000000006020830152604082019050919050565b6000612521602083612acd565b91507f4f776e61626c653a2063616c6c6572206973206e6f7420746865206f776e65726000830152602082019050919050565b6000612561602983612acd565b91507f4552433732313a207472616e73666572206f6620746f6b656e2074686174206960008301527f73206e6f74206f776e00000000000000000000000000000000000000000000006020830152604082019050919050565b60006125c7602f83612acd565b91507f4552433732314d657461646174613a2055524920717565727920666f72206e6f60008301527f6e6578697374656e7420746f6b656e00000000000000000000000000000000006020830152604082019050919050565b600061262d602183612acd565b91507f4552433732313a20617070726f76616c20746f2063757272656e74206f776e6560008301527f72000000000000000000000000000000000000000000000000000000000000006020830152604082019050919050565b6000612693603183612acd565b91507f4552433732313a207472616e736665722063616c6c6572206973206e6f74206f60008301527f776e6572206e6f7220617070726f7665640000000000000000000000000000006020830152604082019050919050565b6126f581612c0e565b82525050565b600061270782856120f3565b915061271382846120f3565b91508190509392505050565b60006020820190506127346000830184612063565b92915050565b600060808201905061274f6000830187612063565b61275c6020830186612063565b61276960408301856126ec565b818103606083015261277b8184612081565b905095945050505050565b600060208201905061279b6000830184612072565b92915050565b600060208201905081810360008301526127bb81846120ba565b905092915050565b600060408201905081810360008301526127dd81856120ba565b905081810360208301526127f181846120ba565b90509392505050565b6000602082019050818103600083015261281381612124565b9050919050565b600060208201905081810360008301526128338161218a565b9050919050565b60006020820190508181036000830152612853816121f0565b9050919050565b6000602082019050818103600083015261287381612230565b9050919050565b6000602082019050818103600083015261289381612296565b9050919050565b600060208201905081810360008301526128b3816122d6565b9050919050565b600060208201905081810360008301526128d38161233c565b9050919050565b600060208201905081810360008301526128f3816123a2565b9050919050565b6000602082019050818103600083015261291381612408565b9050919050565b600060208201905081810360008301526129338161246e565b9050919050565b60006020820190508181036000830152612953816124ae565b9050919050565b6000602082019050818103600083015261297381612514565b9050919050565b6000602082019050818103600083015261299381612554565b9050919050565b600060208201905081810360008301526129b3816125ba565b9050919050565b600060208201905081810360008301526129d381612620565b9050919050565b600060208201905081810360008301526129f381612686565b9050919050565b6000602082019050612a0f60008301846126ec565b92915050565b6000604051905081810181811067ffffffffffffffff82111715612a3c57612a3b612d93565b5b8060405250919050565b600067ffffffffffffffff821115612a6157612a60612d93565b5b601f19601f8301169050602081019050919050565b600067ffffffffffffffff821115612a9157612a90612d93565b5b601f19601f8301169050602081019050919050565b600081519050919050565b600081519050919050565b600082825260208201905092915050565b600082825260208201905092915050565b600081905092915050565b6000612af482612c0e565b9150612aff83612c0e565b9250827fffffffffffffffffffffffffffffffffffffffffffffffffffffffffffffffff03821115612b3457612b33612d06565b5b828201905092915050565b6000612b4a82612c0e565b9150612b5583612c0e565b925082612b6557612b64612d35565b5b828204905092915050565b6000612b7b82612c0e565b9150612b8683612c0e565b925082821015612b9957612b98612d06565b5b828203905092915050565b6000612baf82612bee565b9050919050565b60008115159050919050565b60007fffffffff0000000000000000000000000000000000000000000000000000000082169050919050565b600073ffffffffffffffffffffffffffffffffffffffff82169050919050565b6000819050919050565b82818337600083830152505050565b60005b83811015612c45578082015181840152602081019050612c2a565b83811115612c54576000848401525b50505050565b60006002820490506001821680612c7257607f821691505b60208210811415612c8657612c85612d64565b5b50919050565b6000612c9782612c0e565b91507fffffffffffffffffffffffffffffffffffffffffffffffffffffffffffffffff821415612cca57612cc9612d06565b5b600182019050919050565b6000612ce082612c0e565b9150612ceb83612c0e565b925082612cfb57612cfa612d35565b5b828206905092915050565b7f4e487b7100000000000000000000000000000000000000000000000000000000600052601160045260246000fd5b7f4e487b7100000000000000000000000000000000000000000000000000000000600052601260045260246000fd5b7f4e487b7100000000000000000000000000000000000000000000000000000000600052602260045260246000fd5b7f4e487b7100000000000000000000000000000000000000000000000000000000600052604160045260246000fd5b6000601f19601f8301169050919050565b612ddc81612ba4565b8114612de757600080fd5b50565b612df381612bb6565b8114612dfe57600080fd5b50565b612e0a81612bc2565b8114612e1557600080fd5b50565b612e2181612c0e565b8114612e2c57600080fd5b5056fea26469706673582212208cce65215f8ef3b6cb9ed5a42f6444cd43e8cb3b6f0c15bc46145dc9725c6f3164736f6c63430008000033",
  "immutableReferences": {},
  "source": "// SPDX-License-Identifier: GPL-3.0\npragma solidity ^0.8.0;\n\nimport \"../client/node_modules/@openzeppelin/contracts/token/ERC721/ERC721.sol\";\nimport \"../client/node_modules/@openzeppelin/contracts/access/Ownable.sol\";\n\ncontract QuizCertificate is ERC721, Ownable {\n    constructor() public ERC721(\"QuizNFT\", \"QUIZ\") {}\n\n    struct Certficate {\n        string firstName;\n        string lastName;\n    }\n\n    Certficate[] certicates;\n\n    function mintCertificate(string memory _firstName, string memory _lastName)\n        public\n    {\n        Certficate memory _gradient =\n            Certficate({firstName: _firstName, lastName: _lastName});\n        certicates.push(_gradient);\n        uint256 _certId = certicates.length - 1;\n        _mint(msg.sender, _certId);\n    }\n    \n    function getGradient(uint256 _certId)\n        public\n        view\n        returns (string memory firstName, string memory lastName)\n    {\n        Certficate memory _cert = certicates[_certId];\n        firstName = _cert.firstName;\n        lastName = _cert.lastName;\n    }\n}\n",
  "sourcePath": "/Users/tterado/Desktop/Code/2021/web3js-playground/quizETH/contracts/QuizCertificate.sol",
  "compiler": {
    "name": "solc",
    "version": "0.8.0+commit.c7dfd78e.Emscripten.clang"
  },
  "schemaVersion": "3.3.4",
  "updatedAt": "2021-04-14T21:24:53.740Z",
  "devdoc": {
    "kind": "dev",
    "methods": {
      "approve(address,uint256)": {
        "details": "See {IERC721-approve}."
      },
      "balanceOf(address)": {
        "details": "See {IERC721-balanceOf}."
      },
      "getApproved(uint256)": {
        "details": "See {IERC721-getApproved}."
      },
      "isApprovedForAll(address,address)": {
        "details": "See {IERC721-isApprovedForAll}."
      },
      "name()": {
        "details": "See {IERC721Metadata-name}."
      },
      "owner()": {
        "details": "Returns the address of the current owner."
      },
      "ownerOf(uint256)": {
        "details": "See {IERC721-ownerOf}."
      },
      "renounceOwnership()": {
        "details": "Leaves the contract without owner. It will not be possible to call `onlyOwner` functions anymore. Can only be called by the current owner. NOTE: Renouncing ownership will leave the contract without an owner, thereby removing any functionality that is only available to the owner."
      },
      "safeTransferFrom(address,address,uint256)": {
        "details": "See {IERC721-safeTransferFrom}."
      },
      "safeTransferFrom(address,address,uint256,bytes)": {
        "details": "See {IERC721-safeTransferFrom}."
      },
      "setApprovalForAll(address,bool)": {
        "details": "See {IERC721-setApprovalForAll}."
      },
      "supportsInterface(bytes4)": {
        "details": "See {IERC165-supportsInterface}."
      },
      "symbol()": {
        "details": "See {IERC721Metadata-symbol}."
      },
      "tokenURI(uint256)": {
        "details": "See {IERC721Metadata-tokenURI}."
      },
      "transferFrom(address,address,uint256)": {
        "details": "See {IERC721-transferFrom}."
      },
      "transferOwnership(address)": {
        "details": "Transfers ownership of the contract to a new account (`newOwner`). Can only be called by the current owner."
      }
    },
    "version": 1
  },
  "userdoc": {
    "kind": "user",
    "methods": {},
    "version": 1
  }
}