{
  "contractName": "ToDo",
  "abi": [
    {
      "constant": false,
      "inputs": [
        {
          "internalType": "string",
          "name": "_content",
          "type": "string"
        },
        {
          "internalType": "string",
          "name": "_author",
          "type": "string"
        }
      ],
      "name": "createTask",
      "outputs": [],
      "payable": false,
      "stateMutability": "nonpayable",
      "type": "function"
    }
  ],
  "bytecode": "0x608060405234801561001057600080fd5b5061032d806100206000396000f3fe608060405234801561001057600080fd5b506004361061002b5760003560e01c8063292a458514610030575b600080fd5b6101806004803603604081101561004657600080fd5b810190808035906020019064010000000081111561006357600080fd5b82018360208201111561007557600080fd5b8035906020019184600183028401116401000000008311171561009757600080fd5b91908080601f016020809104026020016040519081016040528093929190818152602001838380828437600081840152601f19601f820116905080830192505050505050509192919290803590602001906401000000008111156100fa57600080fd5b82018360208201111561010c57600080fd5b8035906020019184600183028401116401000000008311171561012e57600080fd5b91908080601f016020809104026020016040519081016040528093929190818152602001838380828437600081840152601f19601f820116905080830192505050505050509192919290505050610182565b005b60006040518060a00160405280600080549050815260200142815260200184815260200183815260200160001515815250908060018154018082558091505090600182039060005260206000209060050201600090919290919091506000820151816000015560208201518160010155604082015181600201908051906020019061020e929190610253565b50606082015181600301908051906020019061022b929190610253565b5060808201518160040160006101000a81548160ff0219169083151502179055505050505050565b828054600181600116156101000203166002900490600052602060002090601f016020900481019282601f1061029457805160ff19168380011785556102c2565b828001600101855582156102c2579182015b828111156102c15782518255916020019190600101906102a6565b5b5090506102cf91906102d3565b5090565b6102f591905b808211156102f15760008160009055506001016102d9565b5090565b9056fea265627a7a723158205ef9d14f68f5cc9d14081d89e654c7f2672b311809a2c6a70fe239a1d19972eb64736f6c63430005100032",
  "source": "// SPDX-License-Identifier: MIT\npragma solidity >=0.4.22 <0.9.0;\n\ncontract ToDo {\n\n  struct Task {\n    uint id;\n    uint date;\n    string content;\n    string author;\n    bool done;\n  }\n  // constructor() public {\n  // }\n\n  //Dynamic Array\n  Task[] tasks;\n\n  function createTask(string memory _content, string memory _author) public {\n    tasks.push(Task(tasks.length, block.timestamp , _content, _author, false));\n  }\n\n  // function getTask(uint id) public \n  //   returns(\n  //     uint,\n  //     uint,\n  //     string memory,\n  //     string memory,\n  //     bool\n  //   ) {\n  //     return(\n  //       id,\n  //       tasks[id].date,\n  //       tasks[id].content,\n  //       tasks[id].author,\n  //       tasks[id].done\n  //     );\n  // }\n\n\n\n}\n",
  "sourcePath": "/Users/tterado/Desktop/Code/2021/web3js-playground/toDoList/contracts/ToDo.sol",
  "compiler": {
    "name": "solc",
    "version": "0.5.16+commit.9c3226ce.Emscripten.clang"
  },
  "schemaVersion": "3.3.4",
  "updatedAt": "2021-04-09T17:33:10.159Z",
  "networkType": "ethereum",
  "devdoc": {
    "methods": {}
  },
  "userdoc": {
    "methods": {}
  }
}